:02000000D32902
:10000600103083120313FD00FD0B072800000800C3
:10001600083083120313FC002330FD00FD0B11286A
:06002600FC0B112808008C
:04002C0000000800C8
:1000300083120313DA1B1E2887131F2887175A1BE6
:100040002328071324280717DA1A282887122928B3
:1000500087165A1A2D2807122E28071647183228F5
:10006000071533280711871516208711DA193A2842
:1000700087133B2887175A193F280713402807176B
:10008000DA1844288712452887165A184928071273
:100090004A28071647184E2807154F2807118715B5
:1000A00016208711471C56280B20572803200800CC
:1000B000710DF80DF90D7408F8027508031C750F21
:1000C000F902F00DF10D0F30FC00710DF80DF90D76
:1000D0007408701C7128F8027508031C750FF9026A
:1000E0007628F80775080318750FF907F00DF10D5C
:1000F000FC0B6528701882287408F8077508031827
:08010000750FF907000008006B
:0E010800073083120313FD00FD0B882808004A
:0E0116008312031339088A003808820008009B
:100124008312031347105908DA00182047140800F3
:10013400AC28803083120313D500BF28C030D5000B
:10014400BF289430D500BF28D430D500BF288030D4
:10015400D500BF28831203135508013A03199B28BD
:100164005508023A0319A0285508033A0319A3288D
:100174005508043A0319A628A9285603F00055087F
:10018400F0077008D5007008DA0018204710D8016D
:1001940058085707840000080319D8285808570737
:1001A40084000008D9009220D80ACA2847140800FD
:1001B400831203137408003A031DE9287508003AF2
:1001C400031DE928FF30F0007F30F100422983123B
:1001D4000313FD01F901F8017108700403190034D7
:1001E40071087506FA00FA1BFD09FB01F51FFF28CB
:1001F400F409F509F40A0319F50AF11F0629F009AF
:10020400F109F00A0319F10A71087504FA00FA1BDE
:100214001B2958207B182E29FD1F0034F009F109F1
:10022400F00A0319F10AF809F909F80A0319F90A95
:100234000034F51F2A29F11B26297108F9007008DA
:10024400F800F101F0010E29F101F001F00A003487
:10025400F109F009FB0A0B29F80A0319F90A7408D1
:100264007802031D0E2975087902031D0E29F90170
:10027400F801F00A0319F10AF11F0E290000FF34F6
:02028400080070
:10028600831203139F01C0309F0483161F179F1705
:1002960083125508F000F00D7010F00D7010F00D7F
:1002A600701070089F041F1484201F151F1D5D29E0
:1002B600000059291F101E08F100F00183161E08C0
:0802C600F0040030F10408000F
:1002CE00FF3083120313C800FF30C900FF30CA008D
:1002DE00FF309F01C0309F0483161F179F17831294
:0402EE001F140800D1
:1002F2008B208A110A128000840AB80A0319B90AEB
:08030200F003031D7929080036
:10030A00831603138711071107128712071387131E
:10031A0083128711071187130713871207120B20FD
:10032A000B200B20871607168715162087110B201E
:10033A008715162087110B208715162087110B2089
:10034A0007128715162087110B208715162087118B
:10035A00871287178715162087110B208713071610
:10036A0087151620871107128715162087110B206B
:10037A0087151620871107168715162087110B2057
:10038A00071287151620871187170717871607166A
:0C039A008715162087110B20471408005F
:1003A600543083120313A0006F30A1007430A200F2
:1003B6006130A3006C30A4002030A5003D30A600BB
:1003C600A701B601B7011930BE000030BF004D309D
:1003D600BC000030BD009930BA00BB01F430B40057
:1003E600B5013330AC000030AD00CC30AA00AB0113
:1003F6006630A8000030A9009930B200B301FF3082
:100406008316850088016721B001B101AE01AF01F5
:10041600880185210130DA0018200C30DA00182016
:10042600CF01D001CD01CE01CB01CC01D301D40146
:1004360080303106F00080303F067002031D252A09
:100446003E08300203183C2AD50143217008831266
:10045600B0007108B1007008B0007108B100B10CAD
:10046600B00CB113311BB117B10CB00CB113311B69
:10047600B11780302F06F00080302D067002031D64
:10048600462A2C082E0203185E2A0130D500432185
:1004960070088312AE007108AF007008AE007108D4
:1004A600AF00AF0CAE0CAF132F1BAF17AF0CAE0CDB
:1004B600AF132F1BAF1780303106F00080303F0698
:1004C6007002031D682A3E0830020318772A80301E
:1004D6002F06F00080302D067002031D742A2C08AA
:1004E6002E020318772A7C2AB60A0319B70A881738
:1004F6007E2A0030880580303106F00080303506CF
:100506007002031D882A34083002031C8E2AD30A7F
:100516000319D40ABD2A80303106F00080303B062C
:100526007002031D982A3A083002031C9E2ACB0A41
:100536000319CC0ABD2A80303106F00080303D0612
:100546007002031DA82A3C083002031CAE2ACD0AFD
:100556000319CE0ABD2A80303106F00080303F06EE
:100566007002031DB82A3E083002031CBD2ACF0ABA
:100576000319D00A80302F06F00080302B06700257
:10058600031DC72A2A082E02031CCD2ACD0A0319E9
:10059600CE0AFC2A80302F06F00080303306700227
:1005A600031DD72A32082E02031CDD2AD30A03199B
:1005B600D40AFC2A80302F06F0008030290670020B
:1005C600031DE72A28082E02031CED2ACB0A03196D
:1005D600CC0AFC2A80302F06F00080302D067002EF
:1005E600031DF72A2C082E02031CFC2ACF0A031926
:1005F600D00A8030F000803050067002031D052BB3
:100606004F08013C0318242B01308800B001B101CA
:10061600AE01AF01D101D2010330FB008A30FC00EC
:100626005530FD00FD0B152BFC0B152BFB0B152B6D
:10063600000000008801C50A0319C60AB601B70101
:100646009E2B8030F00080304E067002031D2D2B4D
:100656004D08013C03184D2B02308800B001B10152
:10066600AE01AF01D101D2010330FB008A30FC009C
:100676005530FD00FD0B3D2BFC0B3D2BFB0B3D2BA5
:100686000000000088010230C5070318C60AB6013B
:10069600B7019E2B8030F00080304C067002031D9F
:1006A600562B4B08013C0318762B04308800B0010A
:1006B600B101AE01AF01D101D2010330FB008A3096
:1006C600FC005530FD00FD0B662BFC0B662BFB0B6F
:1006D600662B0000000088010530C5070318C60A0E
:1006E600B601B7019E2B8030F000803054067002B0
:1006F600031D7F2B5308013C03189E2B08308800EE
:10070600B001B101AE01AF01D101D2010330FB004E
:100716008A30FC005530FD00FD0B8F2BFC0B8F2B18
:10072600FB0B8F2B0000000088010A30C507031859
:10073600C60AB601B7018030F00080303706700275
:10074600031DA72B3608963C0318C22BB001B10136
:10075600AE01AF01D101D201B601B701FF30880069
:100766000330FB008A30FC005530FD00FD0BB92B31
:10077600FC0BB92BFB0BB92B0000000088011030D5
:10078600F4002730F5004508F0004608F100DA20AD
:100796007808F0007908F100E830F4000330F5003D
:1007A600DA2030307007C000E830F4000330F5007E
:1007B6004508F0004608F100DA207808F0007908CC
:1007C600F1006430F4000030F500DA2030307007B4
:1007D600C1006430F4000030F5004508F00046081A
:1007E600F100DA207808F0007908F1000A30F40008
:1007F6000030F500DA2030307007C2000A30F4000D
:100806000030F5004508F0004608F100DA207808C7
:10081600F0007908F10030307007C300C4010130E0
:10082600D5000130D6002030D7009A200230D500FE
:0E0836000130D6004030D7009A20132A212C22
:02400E004A2F37
:00000001FF
